{
  "contractName": "VehicleRegistration",
  "abi": [
    {
      "inputs": [],
      "stateMutability": "nonpayable",
      "type": "constructor"
    },
    {
      "anonymous": false,
      "inputs": [
        {
          "indexed": true,
          "internalType": "address",
          "name": "owner",
          "type": "address"
        },
        {
          "indexed": true,
          "internalType": "address",
          "name": "approved",
          "type": "address"
        },
        {
          "indexed": true,
          "internalType": "uint256",
          "name": "tokenId",
          "type": "uint256"
        }
      ],
      "name": "Approval",
      "type": "event"
    },
    {
      "anonymous": false,
      "inputs": [
        {
          "indexed": true,
          "internalType": "address",
          "name": "owner",
          "type": "address"
        },
        {
          "indexed": true,
          "internalType": "address",
          "name": "operator",
          "type": "address"
        },
        {
          "indexed": false,
          "internalType": "bool",
          "name": "approved",
          "type": "bool"
        }
      ],
      "name": "ApprovalForAll",
      "type": "event"
    },
    {
      "anonymous": false,
      "inputs": [
        {
          "indexed": true,
          "internalType": "address",
          "name": "from",
          "type": "address"
        },
        {
          "indexed": true,
          "internalType": "address",
          "name": "to",
          "type": "address"
        },
        {
          "indexed": true,
          "internalType": "uint256",
          "name": "tokenId",
          "type": "uint256"
        }
      ],
      "name": "Transfer",
      "type": "event"
    },
    {
      "inputs": [
        {
          "internalType": "address",
          "name": "to",
          "type": "address"
        },
        {
          "internalType": "uint256",
          "name": "tokenId",
          "type": "uint256"
        }
      ],
      "name": "approve",
      "outputs": [],
      "stateMutability": "nonpayable",
      "type": "function"
    },
    {
      "inputs": [
        {
          "internalType": "address",
          "name": "owner",
          "type": "address"
        }
      ],
      "name": "balanceOf",
      "outputs": [
        {
          "internalType": "uint256",
          "name": "",
          "type": "uint256"
        }
      ],
      "stateMutability": "view",
      "type": "function",
      "constant": true
    },
    {
      "inputs": [
        {
          "internalType": "uint256",
          "name": "tokenId",
          "type": "uint256"
        }
      ],
      "name": "getApproved",
      "outputs": [
        {
          "internalType": "address",
          "name": "",
          "type": "address"
        }
      ],
      "stateMutability": "view",
      "type": "function",
      "constant": true
    },
    {
      "inputs": [
        {
          "internalType": "address",
          "name": "owner",
          "type": "address"
        },
        {
          "internalType": "address",
          "name": "operator",
          "type": "address"
        }
      ],
      "name": "isApprovedForAll",
      "outputs": [
        {
          "internalType": "bool",
          "name": "",
          "type": "bool"
        }
      ],
      "stateMutability": "view",
      "type": "function",
      "constant": true
    },
    {
      "inputs": [],
      "name": "name",
      "outputs": [
        {
          "internalType": "string",
          "name": "",
          "type": "string"
        }
      ],
      "stateMutability": "view",
      "type": "function",
      "constant": true
    },
    {
      "inputs": [
        {
          "internalType": "uint256",
          "name": "tokenId",
          "type": "uint256"
        }
      ],
      "name": "ownerOf",
      "outputs": [
        {
          "internalType": "address",
          "name": "",
          "type": "address"
        }
      ],
      "stateMutability": "view",
      "type": "function",
      "constant": true
    },
    {
      "inputs": [
        {
          "internalType": "uint256",
          "name": "",
          "type": "uint256"
        }
      ],
      "name": "registrations",
      "outputs": [
        {
          "internalType": "string",
          "name": "tokenId",
          "type": "string"
        },
        {
          "internalType": "uint8",
          "name": "stateCode",
          "type": "uint8"
        },
        {
          "internalType": "uint16",
          "name": "number",
          "type": "uint16"
        },
        {
          "internalType": "string",
          "name": "color",
          "type": "string"
        },
        {
          "internalType": "bool",
          "name": "isPresident",
          "type": "bool"
        },
        {
          "internalType": "bool",
          "name": "isRewarded",
          "type": "bool"
        },
        {
          "internalType": "address payable",
          "name": "owner",
          "type": "address"
        }
      ],
      "stateMutability": "view",
      "type": "function",
      "constant": true
    },
    {
      "inputs": [
        {
          "internalType": "address",
          "name": "from",
          "type": "address"
        },
        {
          "internalType": "address",
          "name": "to",
          "type": "address"
        },
        {
          "internalType": "uint256",
          "name": "tokenId",
          "type": "uint256"
        }
      ],
      "name": "safeTransferFrom",
      "outputs": [],
      "stateMutability": "nonpayable",
      "type": "function"
    },
    {
      "inputs": [
        {
          "internalType": "address",
          "name": "from",
          "type": "address"
        },
        {
          "internalType": "address",
          "name": "to",
          "type": "address"
        },
        {
          "internalType": "uint256",
          "name": "tokenId",
          "type": "uint256"
        },
        {
          "internalType": "bytes",
          "name": "data",
          "type": "bytes"
        }
      ],
      "name": "safeTransferFrom",
      "outputs": [],
      "stateMutability": "nonpayable",
      "type": "function"
    },
    {
      "inputs": [
        {
          "internalType": "address",
          "name": "operator",
          "type": "address"
        },
        {
          "internalType": "bool",
          "name": "approved",
          "type": "bool"
        }
      ],
      "name": "setApprovalForAll",
      "outputs": [],
      "stateMutability": "nonpayable",
      "type": "function"
    },
    {
      "inputs": [
        {
          "internalType": "bytes4",
          "name": "interfaceId",
          "type": "bytes4"
        }
      ],
      "name": "supportsInterface",
      "outputs": [
        {
          "internalType": "bool",
          "name": "",
          "type": "bool"
        }
      ],
      "stateMutability": "view",
      "type": "function",
      "constant": true
    },
    {
      "inputs": [],
      "name": "symbol",
      "outputs": [
        {
          "internalType": "string",
          "name": "",
          "type": "string"
        }
      ],
      "stateMutability": "view",
      "type": "function",
      "constant": true
    },
    {
      "inputs": [
        {
          "internalType": "uint256",
          "name": "tokenId",
          "type": "uint256"
        }
      ],
      "name": "tokenURI",
      "outputs": [
        {
          "internalType": "string",
          "name": "",
          "type": "string"
        }
      ],
      "stateMutability": "view",
      "type": "function",
      "constant": true
    },
    {
      "inputs": [
        {
          "internalType": "address",
          "name": "from",
          "type": "address"
        },
        {
          "internalType": "address",
          "name": "to",
          "type": "address"
        },
        {
          "internalType": "uint256",
          "name": "tokenId",
          "type": "uint256"
        }
      ],
      "name": "transferFrom",
      "outputs": [],
      "stateMutability": "nonpayable",
      "type": "function"
    }
  ],
  "bytecode": "0x60806040523480156200001157600080fd5b506040518060400160405280601381526020017f56656869636c65526567697374726174696f6e000000000000000000000000008152506040518060400160405280600681526020017f56524e4e4654000000000000000000000000000000000000000000000000000081525081600090816200008f919062000324565b508060019081620000a1919062000324565b5050506200040b565b600081519050919050565b7f4e487b7100000000000000000000000000000000000000000000000000000000600052604160045260246000fd5b7f4e487b7100000000000000000000000000000000000000000000000000000000600052602260045260246000fd5b600060028204905060018216806200012c57607f821691505b602082108103620001425762000141620000e4565b5b50919050565b60008190508160005260206000209050919050565b60006020601f8301049050919050565b600082821b905092915050565b600060088302620001ac7fffffffffffffffffffffffffffffffffffffffffffffffffffffffffffffffff826200016d565b620001b886836200016d565b95508019841693508086168417925050509392505050565b6000819050919050565b6000819050919050565b600062000205620001ff620001f984620001d0565b620001da565b620001d0565b9050919050565b6000819050919050565b6200022183620001e4565b6200023962000230826200020c565b8484546200017a565b825550505050565b600090565b6200025062000241565b6200025d81848462000216565b505050565b5b8181101562000285576200027960008262000246565b60018101905062000263565b5050565b601f821115620002d4576200029e8162000148565b620002a9846200015d565b81016020851015620002b9578190505b620002d1620002c8856200015d565b83018262000262565b50505b505050565b600082821c905092915050565b6000620002f960001984600802620002d9565b1980831691505092915050565b6000620003148383620002e6565b9150826002028217905092915050565b6200032f82620000aa565b67ffffffffffffffff8111156200034b576200034a620000b5565b5b62000357825462000113565b6200036482828562000289565b600060209050601f8311600181146200039c576000841562000387578287015190505b62000393858262000306565b86555062000403565b601f198416620003ac8662000148565b60005b82811015620003d657848901518255600182019150602085019450602081019050620003af565b86831015620003f65784890151620003f2601f891682620002e6565b8355505b6001600288020188555050505b505050505050565b612432806200041b6000396000f3fe608060405234801561001057600080fd5b50600436106100ea5760003560e01c806370a082311161008c578063b88d4fde11610066578063b88d4fde1461025b578063c87b56dd14610277578063e985e9c5146102a7578063f4ddb5be146102d7576100ea565b806370a08231146101f157806395d89b4114610221578063a22cb4651461023f576100ea565b8063095ea7b3116100c8578063095ea7b31461016d57806323b872dd1461018957806342842e0e146101a55780636352211e146101c1576100ea565b806301ffc9a7146100ef57806306fdde031461011f578063081812fc1461013d575b600080fd5b610109600480360381019061010491906115bf565b61030d565b6040516101169190611607565b60405180910390f35b6101276103ef565b60405161013491906116b2565b60405180910390f35b6101576004803603810190610152919061170a565b610481565b6040516101649190611778565b60405180910390f35b610187600480360381019061018291906117bf565b6104c7565b005b6101a3600480360381019061019e91906117ff565b6105de565b005b6101bf60048036038101906101ba91906117ff565b61063e565b005b6101db60048036038101906101d6919061170a565b61065e565b6040516101e89190611778565b60405180910390f35b61020b60048036038101906102069190611852565b61070f565b604051610218919061188e565b60405180910390f35b6102296107c6565b60405161023691906116b2565b60405180910390f35b610259600480360381019061025491906118d5565b610858565b005b61027560048036038101906102709190611a4a565b61086e565b005b610291600480360381019061028c919061170a565b6108d0565b60405161029e91906116b2565b60405180910390f35b6102c160048036038101906102bc9190611acd565b610938565b6040516102ce9190611607565b60405180910390f35b6102f160048036038101906102ec919061170a565b6109cc565b6040516103049796959493929190611b67565b60405180910390f35b60007f80ac58cd000000000000000000000000000000000000000000000000000000007bffffffffffffffffffffffffffffffffffffffffffffffffffffffff1916827bffffffffffffffffffffffffffffffffffffffffffffffffffffffff191614806103d857507f5b5e139f000000000000000000000000000000000000000000000000000000007bffffffffffffffffffffffffffffffffffffffffffffffffffffffff1916827bffffffffffffffffffffffffffffffffffffffffffffffffffffffff1916145b806103e857506103e782610b83565b5b9050919050565b6060600080546103fe90611c13565b80601f016020809104026020016040519081016040528092919081815260200182805461042a90611c13565b80156104775780601f1061044c57610100808354040283529160200191610477565b820191906000526020600020905b81548152906001019060200180831161045a57829003601f168201915b5050505050905090565b600061048c82610bed565b6004600083815260200190815260200160002060009054906101000a900473ffffffffffffffffffffffffffffffffffffffff169050919050565b60006104d28261065e565b90508073ffffffffffffffffffffffffffffffffffffffff168373ffffffffffffffffffffffffffffffffffffffff1603610542576040517f08c379a000000000000000000000000000000000000000000000000000000000815260040161053990611cb6565b60405180910390fd5b8073ffffffffffffffffffffffffffffffffffffffff16610561610c38565b73ffffffffffffffffffffffffffffffffffffffff161480610590575061058f8161058a610c38565b610938565b5b6105cf576040517f08c379a00000000000000000000000000000000000000000000000000000000081526004016105c690611d48565b60405180910390fd5b6105d98383610c40565b505050565b6105ef6105e9610c38565b82610cf9565b61062e576040517f08c379a000000000000000000000000000000000000000000000000000000000815260040161062590611dda565b60405180910390fd5b610639838383610d8e565b505050565b6106598383836040518060200160405280600081525061086e565b505050565b6000806002600084815260200190815260200160002060009054906101000a900473ffffffffffffffffffffffffffffffffffffffff169050600073ffffffffffffffffffffffffffffffffffffffff168173ffffffffffffffffffffffffffffffffffffffff1603610706576040517f08c379a00000000000000000000000000000000000000000000000000000000081526004016106fd90611e46565b60405180910390fd5b80915050919050565b60008073ffffffffffffffffffffffffffffffffffffffff168273ffffffffffffffffffffffffffffffffffffffff160361077f576040517f08c379a000000000000000000000000000000000000000000000000000000000815260040161077690611ed8565b60405180910390fd5b600360008373ffffffffffffffffffffffffffffffffffffffff1673ffffffffffffffffffffffffffffffffffffffff168152602001908152602001600020549050919050565b6060600180546107d590611c13565b80601f016020809104026020016040519081016040528092919081815260200182805461080190611c13565b801561084e5780601f106108235761010080835404028352916020019161084e565b820191906000526020600020905b81548152906001019060200180831161083157829003601f168201915b5050505050905090565b61086a610863610c38565b8383610ff4565b5050565b61087f610879610c38565b83610cf9565b6108be576040517f08c379a00000000000000000000000000000000000000000000000000000000081526004016108b590611dda565b60405180910390fd5b6108ca84848484611160565b50505050565b60606108db82610bed565b60006108e56111bc565b905060008151116109055760405180602001604052806000815250610930565b8061090f846111d3565b604051602001610920929190611f34565b6040516020818303038152906040525b915050919050565b6000600560008473ffffffffffffffffffffffffffffffffffffffff1673ffffffffffffffffffffffffffffffffffffffff16815260200190815260200160002060008373ffffffffffffffffffffffffffffffffffffffff1673ffffffffffffffffffffffffffffffffffffffff16815260200190815260200160002060009054906101000a900460ff16905092915050565b600681815481106109dc57600080fd5b90600052602060002090600402016000915090508060000180546109ff90611c13565b80601f0160208091040260200160405190810160405280929190818152602001828054610a2b90611c13565b8015610a785780601f10610a4d57610100808354040283529160200191610a78565b820191906000526020600020905b815481529060010190602001808311610a5b57829003601f168201915b5050505050908060010160009054906101000a900460ff16908060010160019054906101000a900461ffff1690806002018054610ab490611c13565b80601f0160208091040260200160405190810160405280929190818152602001828054610ae090611c13565b8015610b2d5780601f10610b0257610100808354040283529160200191610b2d565b820191906000526020600020905b815481529060010190602001808311610b1057829003601f168201915b5050505050908060030160009054906101000a900460ff16908060030160019054906101000a900460ff16908060030160029054906101000a900473ffffffffffffffffffffffffffffffffffffffff16905087565b60007f01ffc9a7000000000000000000000000000000000000000000000000000000007bffffffffffffffffffffffffffffffffffffffffffffffffffffffff1916827bffffffffffffffffffffffffffffffffffffffffffffffffffffffff1916149050919050565b610bf681611333565b610c35576040517f08c379a0000000000000000000000000000000000000000000000000000000008152600401610c2c90611e46565b60405180910390fd5b50565b600033905090565b816004600083815260200190815260200160002060006101000a81548173ffffffffffffffffffffffffffffffffffffffff021916908373ffffffffffffffffffffffffffffffffffffffff160217905550808273ffffffffffffffffffffffffffffffffffffffff16610cb38361065e565b73ffffffffffffffffffffffffffffffffffffffff167f8c5be1e5ebec7d5bd14f71427d1e84f3dd0314c0f7b2291e5b200ac8c7c3b92560405160405180910390a45050565b600080610d058361065e565b90508073ffffffffffffffffffffffffffffffffffffffff168473ffffffffffffffffffffffffffffffffffffffff161480610d475750610d468185610938565b5b80610d8557508373ffffffffffffffffffffffffffffffffffffffff16610d6d84610481565b73ffffffffffffffffffffffffffffffffffffffff16145b91505092915050565b8273ffffffffffffffffffffffffffffffffffffffff16610dae8261065e565b73ffffffffffffffffffffffffffffffffffffffff1614610e04576040517f08c379a0000000000000000000000000000000000000000000000000000000008152600401610dfb90611fca565b60405180910390fd5b600073ffffffffffffffffffffffffffffffffffffffff168273ffffffffffffffffffffffffffffffffffffffff1603610e73576040517f08c379a0000000000000000000000000000000000000000000000000000000008152600401610e6a9061205c565b60405180910390fd5b610e7e83838361139f565b610e89600082610c40565b6001600360008573ffffffffffffffffffffffffffffffffffffffff1673ffffffffffffffffffffffffffffffffffffffff1681526020019081526020016000206000828254610ed991906120ab565b925050819055506001600360008473ffffffffffffffffffffffffffffffffffffffff1673ffffffffffffffffffffffffffffffffffffffff1681526020019081526020016000206000828254610f3091906120df565b92505081905550816002600083815260200190815260200160002060006101000a81548173ffffffffffffffffffffffffffffffffffffffff021916908373ffffffffffffffffffffffffffffffffffffffff160217905550808273ffffffffffffffffffffffffffffffffffffffff168473ffffffffffffffffffffffffffffffffffffffff167fddf252ad1be2c89b69c2b068fc378daa952ba7f163c4a11628f55a4df523b3ef60405160405180910390a4610fef8383836113a4565b505050565b8173ffffffffffffffffffffffffffffffffffffffff168373ffffffffffffffffffffffffffffffffffffffff1603611062576040517f08c379a00000000000000000000000000000000000000000000000000000000081526004016110599061215f565b60405180910390fd5b80600560008573ffffffffffffffffffffffffffffffffffffffff1673ffffffffffffffffffffffffffffffffffffffff16815260200190815260200160002060008473ffffffffffffffffffffffffffffffffffffffff1673ffffffffffffffffffffffffffffffffffffffff16815260200190815260200160002060006101000a81548160ff0219169083151502179055508173ffffffffffffffffffffffffffffffffffffffff168373ffffffffffffffffffffffffffffffffffffffff167f17307eab39ab6107e8899845ad3d59bd9653f200f220920489ca2b5937696c31836040516111539190611607565b60405180910390a3505050565b61116b848484610d8e565b611177848484846113a9565b6111b6576040517f08c379a00000000000000000000000000000000000000000000000000000000081526004016111ad906121f1565b60405180910390fd5b50505050565b606060405180602001604052806000815250905090565b60606000820361121a576040518060400160405280600181526020017f3000000000000000000000000000000000000000000000000000000000000000815250905061132e565b600082905060005b6000821461124c57808061123590612211565b915050600a826112459190612288565b9150611222565b60008167ffffffffffffffff8111156112685761126761191f565b5b6040519080825280601f01601f19166020018201604052801561129a5781602001600182028036833780820191505090505b5090505b60008514611327576001826112b391906120ab565b9150600a856112c291906122b9565b60306112ce91906120df565b60f81b8183815181106112e4576112e36122ea565b5b60200101907effffffffffffffffffffffffffffffffffffffffffffffffffffffffffffff1916908160001a905350600a856113209190612288565b945061129e565b8093505050505b919050565b60008073ffffffffffffffffffffffffffffffffffffffff166002600084815260200190815260200160002060009054906101000a900473ffffffffffffffffffffffffffffffffffffffff1673ffffffffffffffffffffffffffffffffffffffff1614159050919050565b505050565b505050565b60006113ca8473ffffffffffffffffffffffffffffffffffffffff16611530565b15611523578373ffffffffffffffffffffffffffffffffffffffff1663150b7a026113f3610c38565b8786866040518563ffffffff1660e01b8152600401611415949392919061236e565b6020604051808303816000875af192505050801561145157506040513d601f19601f8201168201806040525081019061144e91906123cf565b60015b6114d3573d8060008114611481576040519150601f19603f3d011682016040523d82523d6000602084013e611486565b606091505b5060008151036114cb576040517f08c379a00000000000000000000000000000000000000000000000000000000081526004016114c2906121f1565b60405180910390fd5b805181602001fd5b63150b7a0260e01b7bffffffffffffffffffffffffffffffffffffffffffffffffffffffff1916817bffffffffffffffffffffffffffffffffffffffffffffffffffffffff191614915050611528565b600190505b949350505050565b6000808273ffffffffffffffffffffffffffffffffffffffff163b119050919050565b6000604051905090565b600080fd5b600080fd5b60007fffffffff0000000000000000000000000000000000000000000000000000000082169050919050565b61159c81611567565b81146115a757600080fd5b50565b6000813590506115b981611593565b92915050565b6000602082840312156115d5576115d461155d565b5b60006115e3848285016115aa565b91505092915050565b60008115159050919050565b611601816115ec565b82525050565b600060208201905061161c60008301846115f8565b92915050565b600081519050919050565b600082825260208201905092915050565b60005b8381101561165c578082015181840152602081019050611641565b60008484015250505050565b6000601f19601f8301169050919050565b600061168482611622565b61168e818561162d565b935061169e81856020860161163e565b6116a781611668565b840191505092915050565b600060208201905081810360008301526116cc8184611679565b905092915050565b6000819050919050565b6116e7816116d4565b81146116f257600080fd5b50565b600081359050611704816116de565b92915050565b6000602082840312156117205761171f61155d565b5b600061172e848285016116f5565b91505092915050565b600073ffffffffffffffffffffffffffffffffffffffff82169050919050565b600061176282611737565b9050919050565b61177281611757565b82525050565b600060208201905061178d6000830184611769565b92915050565b61179c81611757565b81146117a757600080fd5b50565b6000813590506117b981611793565b92915050565b600080604083850312156117d6576117d561155d565b5b60006117e4858286016117aa565b92505060206117f5858286016116f5565b9150509250929050565b6000806000606084860312156118185761181761155d565b5b6000611826868287016117aa565b9350506020611837868287016117aa565b9250506040611848868287016116f5565b9150509250925092565b6000602082840312156118685761186761155d565b5b6000611876848285016117aa565b91505092915050565b611888816116d4565b82525050565b60006020820190506118a3600083018461187f565b92915050565b6118b2816115ec565b81146118bd57600080fd5b50565b6000813590506118cf816118a9565b92915050565b600080604083850312156118ec576118eb61155d565b5b60006118fa858286016117aa565b925050602061190b858286016118c0565b9150509250929050565b600080fd5b600080fd5b7f4e487b7100000000000000000000000000000000000000000000000000000000600052604160045260246000fd5b61195782611668565b810181811067ffffffffffffffff821117156119765761197561191f565b5b80604052505050565b6000611989611553565b9050611995828261194e565b919050565b600067ffffffffffffffff8211156119b5576119b461191f565b5b6119be82611668565b9050602081019050919050565b82818337600083830152505050565b60006119ed6119e88461199a565b61197f565b905082815260208101848484011115611a0957611a0861191a565b5b611a148482856119cb565b509392505050565b600082601f830112611a3157611a30611915565b5b8135611a418482602086016119da565b91505092915050565b60008060008060808587031215611a6457611a6361155d565b5b6000611a72878288016117aa565b9450506020611a83878288016117aa565b9350506040611a94878288016116f5565b925050606085013567ffffffffffffffff811115611ab557611ab4611562565b5b611ac187828801611a1c565b91505092959194509250565b60008060408385031215611ae457611ae361155d565b5b6000611af2858286016117aa565b9250506020611b03858286016117aa565b9150509250929050565b600060ff82169050919050565b611b2381611b0d565b82525050565b600061ffff82169050919050565b611b4081611b29565b82525050565b6000611b5182611737565b9050919050565b611b6181611b46565b82525050565b600060e0820190508181036000830152611b81818a611679565b9050611b906020830189611b1a565b611b9d6040830188611b37565b8181036060830152611baf8187611679565b9050611bbe60808301866115f8565b611bcb60a08301856115f8565b611bd860c0830184611b58565b98975050505050505050565b7f4e487b7100000000000000000000000000000000000000000000000000000000600052602260045260246000fd5b60006002820490506001821680611c2b57607f821691505b602082108103611c3e57611c3d611be4565b5b50919050565b7f4552433732313a20617070726f76616c20746f2063757272656e74206f776e6560008201527f7200000000000000000000000000000000000000000000000000000000000000602082015250565b6000611ca060218361162d565b9150611cab82611c44565b604082019050919050565b60006020820190508181036000830152611ccf81611c93565b9050919050565b7f4552433732313a20617070726f76652063616c6c6572206973206e6f7420746f60008201527f6b656e206f776e6572206e6f7220617070726f76656420666f7220616c6c0000602082015250565b6000611d32603e8361162d565b9150611d3d82611cd6565b604082019050919050565b60006020820190508181036000830152611d6181611d25565b9050919050565b7f4552433732313a2063616c6c6572206973206e6f7420746f6b656e206f776e6560008201527f72206e6f7220617070726f766564000000000000000000000000000000000000602082015250565b6000611dc4602e8361162d565b9150611dcf82611d68565b604082019050919050565b60006020820190508181036000830152611df381611db7565b9050919050565b7f4552433732313a20696e76616c696420746f6b656e2049440000000000000000600082015250565b6000611e3060188361162d565b9150611e3b82611dfa565b602082019050919050565b60006020820190508181036000830152611e5f81611e23565b9050919050565b7f4552433732313a2061646472657373207a65726f206973206e6f74206120766160008201527f6c6964206f776e65720000000000000000000000000000000000000000000000602082015250565b6000611ec260298361162d565b9150611ecd82611e66565b604082019050919050565b60006020820190508181036000830152611ef181611eb5565b9050919050565b600081905092915050565b6000611f0e82611622565b611f188185611ef8565b9350611f2881856020860161163e565b80840191505092915050565b6000611f408285611f03565b9150611f4c8284611f03565b91508190509392505050565b7f4552433732313a207472616e736665722066726f6d20696e636f72726563742060008201527f6f776e6572000000000000000000000000000000000000000000000000000000602082015250565b6000611fb460258361162d565b9150611fbf82611f58565b604082019050919050565b60006020820190508181036000830152611fe381611fa7565b9050919050565b7f4552433732313a207472616e7366657220746f20746865207a65726f2061646460008201527f7265737300000000000000000000000000000000000000000000000000000000602082015250565b600061204660248361162d565b915061205182611fea565b604082019050919050565b6000602082019050818103600083015261207581612039565b9050919050565b7f4e487b7100000000000000000000000000000000000000000000000000000000600052601160045260246000fd5b60006120b6826116d4565b91506120c1836116d4565b92508282039050818111156120d9576120d861207c565b5b92915050565b60006120ea826116d4565b91506120f5836116d4565b925082820190508082111561210d5761210c61207c565b5b92915050565b7f4552433732313a20617070726f766520746f2063616c6c657200000000000000600082015250565b600061214960198361162d565b915061215482612113565b602082019050919050565b600060208201905081810360008301526121788161213c565b9050919050565b7f4552433732313a207472616e7366657220746f206e6f6e20455243373231526560008201527f63656976657220696d706c656d656e7465720000000000000000000000000000602082015250565b60006121db60328361162d565b91506121e68261217f565b604082019050919050565b6000602082019050818103600083015261220a816121ce565b9050919050565b600061221c826116d4565b91507fffffffffffffffffffffffffffffffffffffffffffffffffffffffffffffffff820361224e5761224d61207c565b5b600182019050919050565b7f4e487b7100000000000000000000000000000000000000000000000000000000600052601260045260246000fd5b6000612293826116d4565b915061229e836116d4565b9250826122ae576122ad612259565b5b828204905092915050565b60006122c4826116d4565b91506122cf836116d4565b9250826122df576122de612259565b5b828206905092915050565b7f4e487b7100000000000000000000000000000000000000000000000000000000600052603260045260246000fd5b600081519050919050565b600082825260208201905092915050565b600061234082612319565b61234a8185612324565b935061235a81856020860161163e565b61236381611668565b840191505092915050565b60006080820190506123836000830187611769565b6123906020830186611769565b61239d604083018561187f565b81810360608301526123af8184612335565b905095945050505050565b6000815190506123c981611593565b92915050565b6000602082840312156123e5576123e461155d565b5b60006123f3848285016123ba565b9150509291505056fea26469706673582212201769e39eb43a4d694ed4f1c2889b6a2f248ed4b0b3cb223b7387f183435cf10e64736f6c63430008110033",
  "immutableReferences": {},
  "source": "// SPDX-License-Identifier: MIT\npragma solidity ^0.8.0;\n\nimport \"@openzeppelin/contracts/token/ERC721/ERC721.sol\";\n\ncontract VehicleRegistration is ERC721 {\n    // Contain all NFT Info\n    Registration[] public registrations;\n\n    // Mapping with tokenId to avoid duplicate\n    mapping(string => bool) _registrationExist;\n\n    // NFT Structure\n    struct Registration {\n        string tokenId;\n        uint8 stateCode;\n        uint16 number;\n        string color;\n        bool isPresident;\n        bool isRewarded;\n        address payable owner;\n    }\n\n    constructor() ERC721(\"VehicleRegistration\", \"VRNNFT\") {}\n}\n",
  "sourcePath": "/home/cnadmin/tathagata/Training/Task/vehicle-registration-nft/src/contracts/VehicleRegistration.sol",
  "compiler": {
    "name": "solc",
    "version": "0.8.17+commit.8df45f5f.Emscripten.clang"
  },
  "schemaVersion": "3.4.10",
  "updatedAt": "2022-09-16T08:29:26.111Z",
  "networkType": "ethereum",
  "devdoc": {
    "kind": "dev",
    "methods": {
      "approve(address,uint256)": {
        "details": "See {IERC721-approve}."
      },
      "balanceOf(address)": {
        "details": "See {IERC721-balanceOf}."
      },
      "getApproved(uint256)": {
        "details": "See {IERC721-getApproved}."
      },
      "isApprovedForAll(address,address)": {
        "details": "See {IERC721-isApprovedForAll}."
      },
      "name()": {
        "details": "See {IERC721Metadata-name}."
      },
      "ownerOf(uint256)": {
        "details": "See {IERC721-ownerOf}."
      },
      "safeTransferFrom(address,address,uint256)": {
        "details": "See {IERC721-safeTransferFrom}."
      },
      "safeTransferFrom(address,address,uint256,bytes)": {
        "details": "See {IERC721-safeTransferFrom}."
      },
      "setApprovalForAll(address,bool)": {
        "details": "See {IERC721-setApprovalForAll}."
      },
      "supportsInterface(bytes4)": {
        "details": "See {IERC165-supportsInterface}."
      },
      "symbol()": {
        "details": "See {IERC721Metadata-symbol}."
      },
      "tokenURI(uint256)": {
        "details": "See {IERC721Metadata-tokenURI}."
      },
      "transferFrom(address,address,uint256)": {
        "details": "See {IERC721-transferFrom}."
      }
    },
    "version": 1
  },
  "userdoc": {
    "kind": "user",
    "methods": {},
    "version": 1
  }
}